{
  "contractName": "DutchAuction",
  "abi": [
    {
      "inputs": [
        {
          "internalType": "address",
          "name": "_tokenAddress",
          "type": "address"
        },
        {
          "internalType": "uint256",
          "name": "_startingPrice",
          "type": "uint256"
        },
        {
          "internalType": "uint256",
          "name": "_reservePrice",
          "type": "uint256"
        },
        {
          "internalType": "uint256",
          "name": "_duration",
          "type": "uint256"
        },
        {
          "internalType": "uint256",
          "name": "_totalTokens",
          "type": "uint256"
        }
      ],
      "stateMutability": "nonpayable",
      "type": "constructor"
    },
    {
      "anonymous": false,
      "inputs": [
        {
          "indexed": false,
          "internalType": "uint256",
          "name": "totalTokensSold",
          "type": "uint256"
        },
        {
          "indexed": false,
          "internalType": "uint256",
          "name": "clearingPrice",
          "type": "uint256"
        }
      ],
      "name": "AuctionEnded",
      "type": "event"
    },
    {
      "anonymous": false,
      "inputs": [
        {
          "indexed": true,
          "internalType": "address",
          "name": "bidder",
          "type": "address"
        },
        {
          "indexed": false,
          "internalType": "uint256",
          "name": "amount",
          "type": "uint256"
        },
        {
          "indexed": false,
          "internalType": "uint256",
          "name": "tokensPurchased",
          "type": "uint256"
        }
      ],
      "name": "BidPlaced",
      "type": "event"
    },
    {
      "anonymous": false,
      "inputs": [
        {
          "indexed": false,
          "internalType": "uint256",
          "name": "message",
          "type": "uint256"
        }
      ],
      "name": "Debug",
      "type": "event"
    },
    {
      "inputs": [],
      "name": "auctionEnded",
      "outputs": [
        {
          "internalType": "bool",
          "name": "",
          "type": "bool"
        }
      ],
      "stateMutability": "view",
      "type": "function",
      "constant": true
    },
    {
      "inputs": [
        {
          "internalType": "address",
          "name": "",
          "type": "address"
        }
      ],
      "name": "bids",
      "outputs": [
        {
          "internalType": "uint256",
          "name": "",
          "type": "uint256"
        }
      ],
      "stateMutability": "view",
      "type": "function",
      "constant": true
    },
    {
      "inputs": [],
      "name": "duration",
      "outputs": [
        {
          "internalType": "uint256",
          "name": "",
          "type": "uint256"
        }
      ],
      "stateMutability": "view",
      "type": "function",
      "constant": true
    },
    {
      "inputs": [],
      "name": "endAt",
      "outputs": [
        {
          "internalType": "uint256",
          "name": "",
          "type": "uint256"
        }
      ],
      "stateMutability": "view",
      "type": "function",
      "constant": true
    },
    {
      "inputs": [],
      "name": "reservePrice",
      "outputs": [
        {
          "internalType": "uint256",
          "name": "",
          "type": "uint256"
        }
      ],
      "stateMutability": "view",
      "type": "function",
      "constant": true
    },
    {
      "inputs": [],
      "name": "seller",
      "outputs": [
        {
          "internalType": "address payable",
          "name": "",
          "type": "address"
        }
      ],
      "stateMutability": "view",
      "type": "function",
      "constant": true
    },
    {
      "inputs": [],
      "name": "startAt",
      "outputs": [
        {
          "internalType": "uint256",
          "name": "",
          "type": "uint256"
        }
      ],
      "stateMutability": "view",
      "type": "function",
      "constant": true
    },
    {
      "inputs": [],
      "name": "startingPrice",
      "outputs": [
        {
          "internalType": "uint256",
          "name": "",
          "type": "uint256"
        }
      ],
      "stateMutability": "view",
      "type": "function",
      "constant": true
    },
    {
      "inputs": [],
      "name": "token",
      "outputs": [
        {
          "internalType": "contract V4Coin",
          "name": "",
          "type": "address"
        }
      ],
      "stateMutability": "view",
      "type": "function",
      "constant": true
    },
    {
      "inputs": [],
      "name": "tokensSold",
      "outputs": [
        {
          "internalType": "uint256",
          "name": "",
          "type": "uint256"
        }
      ],
      "stateMutability": "view",
      "type": "function",
      "constant": true
    },
    {
      "inputs": [],
      "name": "totalTokens",
      "outputs": [
        {
          "internalType": "uint256",
          "name": "",
          "type": "uint256"
        }
      ],
      "stateMutability": "view",
      "type": "function",
      "constant": true
    },
    {
      "inputs": [],
      "name": "getStartingPrice",
      "outputs": [
        {
          "internalType": "uint256",
          "name": "",
          "type": "uint256"
        }
      ],
      "stateMutability": "view",
      "type": "function",
      "constant": true
    },
    {
      "inputs": [],
      "name": "getReservePrice",
      "outputs": [
        {
          "internalType": "uint256",
          "name": "",
          "type": "uint256"
        }
      ],
      "stateMutability": "view",
      "type": "function",
      "constant": true
    },
    {
      "inputs": [],
      "name": "getDuration",
      "outputs": [
        {
          "internalType": "uint256",
          "name": "",
          "type": "uint256"
        }
      ],
      "stateMutability": "view",
      "type": "function",
      "constant": true
    },
    {
      "inputs": [],
      "name": "getEndAt",
      "outputs": [
        {
          "internalType": "uint256",
          "name": "",
          "type": "uint256"
        }
      ],
      "stateMutability": "view",
      "type": "function",
      "constant": true
    },
    {
      "inputs": [],
      "name": "getStartTime",
      "outputs": [
        {
          "internalType": "uint256",
          "name": "",
          "type": "uint256"
        }
      ],
      "stateMutability": "view",
      "type": "function",
      "constant": true
    },
    {
      "inputs": [],
      "name": "getCurrentPrice",
      "outputs": [
        {
          "internalType": "uint256",
          "name": "",
          "type": "uint256"
        }
      ],
      "stateMutability": "view",
      "type": "function",
      "constant": true
    },
    {
      "inputs": [],
      "name": "bid",
      "outputs": [],
      "stateMutability": "payable",
      "type": "function",
      "payable": true
    },
    {
      "inputs": [],
      "name": "endAuction",
      "outputs": [],
      "stateMutability": "nonpayable",
      "type": "function"
    }
  ],
  "bytecode": "0x60806040523480156200001157600080fd5b50604051620016a3380380620016a38339818101604052810190620000379190620001f1565b600160008190555082841162000084576040517f08c379a00000000000000000000000000000000000000000000000000000000081526004016200007b9062000300565b60405180910390fd5b84600160006101000a81548173ffffffffffffffffffffffffffffffffffffffff021916908373ffffffffffffffffffffffffffffffffffffffff16021790555033600260006101000a81548173ffffffffffffffffffffffffffffffffffffffff021916908373ffffffffffffffffffffffffffffffffffffffff1602179055508360038190555082600481905550816005819055504260068190555060055460065462000134919062000351565b600781905550806008819055505050505050620003ae565b600080fd5b600073ffffffffffffffffffffffffffffffffffffffff82169050919050565b60006200017e8262000151565b9050919050565b620001908162000171565b81146200019c57600080fd5b50565b600081519050620001b08162000185565b92915050565b6000819050919050565b620001cb81620001b6565b8114620001d757600080fd5b50565b600081519050620001eb81620001c0565b92915050565b600080600080600060a0868803121562000210576200020f6200014c565b5b600062000220888289016200019f565b95505060206200023388828901620001da565b94505060406200024688828901620001da565b93505060606200025988828901620001da565b92505060806200026c88828901620001da565b9150509295509295909350565b600082825260208201905092915050565b7f5374617274696e67207072696365206d7573742062652067726561746572207460008201527f68616e2072657365727665207072696365000000000000000000000000000000602082015250565b6000620002e860318362000279565b9150620002f5826200028a565b604082019050919050565b600060208201905081810360008301526200031b81620002d9565b9050919050565b7f4e487b7100000000000000000000000000000000000000000000000000000000600052601160045260246000fd5b60006200035e82620001b6565b91506200036b83620001b6565b9250827fffffffffffffffffffffffffffffffffffffffffffffffffffffffffffffffff03821115620003a357620003a262000322565b5b828201905092915050565b6112e580620003be6000396000f3fe6080604052600436106101145760003560e01c8063ad2e8c9b116100a0578063db2e1eed11610064578063db2e1eed14610364578063eb91d37e1461038f578063f0722322146103ba578063fc0c546a146103e5578063fe67a54b1461041057610114565b8063ad2e8c9b1461028d578063c7446565146102b8578063c828371e146102e3578063cebd31bc1461030e578063d6fbf2021461033957610114565b80635e3660b5116100e75780635e3660b5146101a457806362ea82db146101cf5780637cc3ae8c1461020c5780637e1c0c0914610237578063864333741461026257610114565b806308551a53146101195780630fb5a6b4146101445780631998aeef1461016f578063518ab2a814610179575b600080fd5b34801561012557600080fd5b5061012e610427565b60405161013b9190610c0e565b60405180910390f35b34801561015057600080fd5b5061015961044d565b6040516101669190610c42565b60405180910390f35b610177610453565b005b34801561018557600080fd5b5061018e6107cb565b60405161019b9190610c42565b60405180910390f35b3480156101b057600080fd5b506101b96107d1565b6040516101c69190610c42565b60405180910390f35b3480156101db57600080fd5b506101f660048036038101906101f19190610ca0565b6107db565b6040516102039190610c42565b60405180910390f35b34801561021857600080fd5b506102216107f3565b60405161022e9190610c42565b60405180910390f35b34801561024357600080fd5b5061024c6107f9565b6040516102599190610c42565b60405180910390f35b34801561026e57600080fd5b506102776107ff565b6040516102849190610ce8565b60405180910390f35b34801561029957600080fd5b506102a2610812565b6040516102af9190610c42565b60405180910390f35b3480156102c457600080fd5b506102cd61081c565b6040516102da9190610c42565b60405180910390f35b3480156102ef57600080fd5b506102f8610822565b6040516103059190610c42565b60405180910390f35b34801561031a57600080fd5b5061032361082c565b6040516103309190610c42565b60405180910390f35b34801561034557600080fd5b5061034e610836565b60405161035b9190610c42565b60405180910390f35b34801561037057600080fd5b5061037961083c565b6040516103869190610c42565b60405180910390f35b34801561039b57600080fd5b506103a4610842565b6040516103b19190610c42565b60405180910390f35b3480156103c657600080fd5b506103cf6108b6565b6040516103dc9190610c42565b60405180910390f35b3480156103f157600080fd5b506103fa6108c0565b6040516104079190610d62565b60405180910390f35b34801561041c57600080fd5b506104256108e6565b005b600260009054906101000a900473ffffffffffffffffffffffffffffffffffffffff1681565b60055481565b600260005403610498576040517f08c379a000000000000000000000000000000000000000000000000000000000815260040161048f90610dda565b60405180910390fd5b600260008190555060065442101580156104b457506007544211155b6104f3576040517f08c379a00000000000000000000000000000000000000000000000000000000081526004016104ea90610e46565b60405180910390fd5b600a60009054906101000a900460ff1615610543576040517f08c379a000000000000000000000000000000000000000000000000000000000815260040161053a90610eb2565b60405180910390fd5b600061054d610842565b90506000813461055d9190610f30565b9050600854816009546105709190610f61565b11156105b1576040517f08c379a00000000000000000000000000000000000000000000000000000000081526004016105a890611003565b60405180910390fd5b34600b60003373ffffffffffffffffffffffffffffffffffffffff1673ffffffffffffffffffffffffffffffffffffffff16815260200190815260200160002060008282546106009190610f61565b9250508190555080600960008282546106199190610f61565b925050819055506000600160009054906101000a900473ffffffffffffffffffffffffffffffffffffffff1673ffffffffffffffffffffffffffffffffffffffff1663a9059cbb33846040518363ffffffff1660e01b815260040161067f929190611032565b6020604051808303816000875af115801561069e573d6000803e3d6000fd5b505050506040513d601f19601f820116820180604052508101906106c29190611087565b905080610704576040517f08c379a00000000000000000000000000000000000000000000000000000000081526004016106fb90611100565b60405180910390fd5b3373ffffffffffffffffffffffffffffffffffffffff167fdf8644c0a4c21ed214ce69f395675b3a5fcd1039083daea5058898de40ea3149348460405161074c929190611120565b60405180910390a2600854600954036107be576001600a60006101000a81548160ff0219169083151502179055507fe536ac546f86787f3ea4069f79235c6b5a681e87d051300a3ed19a6ebb0db71c600954846040516107ad929190611120565b60405180910390a16107bd610a3d565b5b5050506001600081905550565b60095481565b6000600754905090565b600b6020528060005260406000206000915090505481565b60075481565b60085481565b600a60009054906101000a900460ff1681565b6000600554905090565b60065481565b6000600654905090565b6000600354905090565b60035481565b60045481565b6000804290506000600754821061085d5760045490506108ae565b60006006548361086d9190611149565b90506000600554826004546003546108859190611149565b61088f919061117d565b6108999190610f30565b9050806003546108a99190611149565b925050505b809250505090565b6000600454905090565b600160009054906101000a900473ffffffffffffffffffffffffffffffffffffffff1681565b60026000540361092b576040517f08c379a000000000000000000000000000000000000000000000000000000000815260040161092290610dda565b60405180910390fd5b6002600081905550600754421015610978576040517f08c379a000000000000000000000000000000000000000000000000000000000815260040161096f90611223565b60405180910390fd5b600a60009054906101000a900460ff16156109c8576040517f08c379a00000000000000000000000000000000000000000000000000000000081526004016109bf9061128f565b60405180910390fd5b6001600a60006101000a81548160ff02191690831515021790555060006109ed610842565b90507fe536ac546f86787f3ea4069f79235c6b5a681e87d051300a3ed19a6ebb0db71c60095482604051610a22929190611120565b60405180910390a1610a32610a3d565b506001600081905550565b6000479050600260009054906101000a900473ffffffffffffffffffffffffffffffffffffffff1673ffffffffffffffffffffffffffffffffffffffff166108fc829081150290604051600060405180830381858888f19350505050158015610aaa573d6000803e3d6000fd5b506000600954600854610abd9190611149565b90506000811115610bc8577f8a36f5a234186d446e36a7df36ace663a05a580d9bea2dd899c6dd76a075d5fa81604051610af79190610c42565b60405180910390a1600160009054906101000a900473ffffffffffffffffffffffffffffffffffffffff1673ffffffffffffffffffffffffffffffffffffffff166342966c68826040518263ffffffff1660e01b8152600401610b5a9190610c42565b600060405180830381600087803b158015610b7457600080fd5b505af1158015610b88573d6000803e3d6000fd5b505050507f8a36f5a234186d446e36a7df36ace663a05a580d9bea2dd899c6dd76a075d5fa81604051610bbb9190610c42565b60405180910390a1610bc9565b5b5050565b600073ffffffffffffffffffffffffffffffffffffffff82169050919050565b6000610bf882610bcd565b9050919050565b610c0881610bed565b82525050565b6000602082019050610c236000830184610bff565b92915050565b6000819050919050565b610c3c81610c29565b82525050565b6000602082019050610c576000830184610c33565b92915050565b600080fd5b6000610c6d82610bcd565b9050919050565b610c7d81610c62565b8114610c8857600080fd5b50565b600081359050610c9a81610c74565b92915050565b600060208284031215610cb657610cb5610c5d565b5b6000610cc484828501610c8b565b91505092915050565b60008115159050919050565b610ce281610ccd565b82525050565b6000602082019050610cfd6000830184610cd9565b92915050565b6000819050919050565b6000610d28610d23610d1e84610bcd565b610d03565b610bcd565b9050919050565b6000610d3a82610d0d565b9050919050565b6000610d4c82610d2f565b9050919050565b610d5c81610d41565b82525050565b6000602082019050610d776000830184610d53565b92915050565b600082825260208201905092915050565b7f5265656e7472616e637947756172643a207265656e7472616e742063616c6c00600082015250565b6000610dc4601f83610d7d565b9150610dcf82610d8e565b602082019050919050565b60006020820190508181036000830152610df381610db7565b9050919050565b7f41756374696f6e206e6f74206163746976650000000000000000000000000000600082015250565b6000610e30601283610d7d565b9150610e3b82610dfa565b602082019050919050565b60006020820190508181036000830152610e5f81610e23565b9050919050565b7f41756374696f6e2068617320656e646564000000000000000000000000000000600082015250565b6000610e9c601183610d7d565b9150610ea782610e66565b602082019050919050565b60006020820190508181036000830152610ecb81610e8f565b9050919050565b7f4e487b7100000000000000000000000000000000000000000000000000000000600052601260045260246000fd5b7f4e487b7100000000000000000000000000000000000000000000000000000000600052601160045260246000fd5b6000610f3b82610c29565b9150610f4683610c29565b925082610f5657610f55610ed2565b5b828204905092915050565b6000610f6c82610c29565b9150610f7783610c29565b9250827fffffffffffffffffffffffffffffffffffffffffffffffffffffffffffffffff03821115610fac57610fab610f01565b5b828201905092915050565b7f4e6f7420656e6f75676820746f6b656e73206c65667400000000000000000000600082015250565b6000610fed601683610d7d565b9150610ff882610fb7565b602082019050919050565b6000602082019050818103600083015261101c81610fe0565b9050919050565b61102c81610c62565b82525050565b60006040820190506110476000830185611023565b6110546020830184610c33565b9392505050565b61106481610ccd565b811461106f57600080fd5b50565b6000815190506110818161105b565b92915050565b60006020828403121561109d5761109c610c5d565b5b60006110ab84828501611072565b91505092915050565b7f546f6b656e207472616e73666572206661696c65640000000000000000000000600082015250565b60006110ea601583610d7d565b91506110f5826110b4565b602082019050919050565b60006020820190508181036000830152611119816110dd565b9050919050565b60006040820190506111356000830185610c33565b6111426020830184610c33565b9392505050565b600061115482610c29565b915061115f83610c29565b92508282101561117257611171610f01565b5b828203905092915050565b600061118882610c29565b915061119383610c29565b9250817fffffffffffffffffffffffffffffffffffffffffffffffffffffffffffffffff04831182151516156111cc576111cb610f01565b5b828202905092915050565b7f41756374696f6e206475726174696f6e206e6f74207965742070617373656400600082015250565b600061120d601f83610d7d565b9150611218826111d7565b602082019050919050565b6000602082019050818103600083015261123c81611200565b9050919050565b7f41756374696f6e20616c726561647920656e6465640000000000000000000000600082015250565b6000611279601583610d7d565b915061128482611243565b602082019050919050565b600060208201905081810360008301526112a88161126c565b905091905056fea2646970667358221220f28e11252e6e766f2cff0f82ba64a2e3210e6338b4f1752079ab64d82720244764736f6c634300080d0033",
  "immutableReferences": {},
  "source": "// SPDX-License-Identifier: MIT\r\npragma solidity ^0.8.2;\r\n\r\n// Import necessary OpenZeppelin contracts\r\nimport \"@openzeppelin/contracts/security/ReentrancyGuard.sol\";\r\nimport \"./V4Coin.sol\";\r\n\r\n\r\ncontract DutchAuction is ReentrancyGuard {\r\n    // Variables\r\n    V4Coin public token;\r\n    address payable public seller;\r\n    uint256 public startingPrice;\r\n    uint256 public reservePrice;\r\n    uint256 public duration;\r\n    uint256 public startAt;\r\n    uint256 public endAt;\r\n    uint256 public totalTokens;\r\n    uint256 public tokensSold;\r\n    bool public auctionEnded;\r\n\r\n    mapping(address => uint256) public bids;\r\n\r\n    // Events\r\n    event BidPlaced(address indexed bidder, uint256 amount, uint256 tokensPurchased);\r\n    event AuctionEnded(uint256 totalTokensSold, uint256 clearingPrice);\r\n    event Debug(uint256 message);\r\n\r\n    // Constructor\r\n    constructor(\r\n        address _tokenAddress,\r\n        uint256 _startingPrice,\r\n        uint256 _reservePrice,\r\n        uint256 _duration,\r\n        uint256 _totalTokens\r\n    ) {\r\n        require(_startingPrice > _reservePrice, \"Starting price must be greater than reserve price\");\r\n        token = V4Coin(_tokenAddress);\r\n        seller = payable(msg.sender);\r\n        startingPrice = _startingPrice;\r\n        reservePrice = _reservePrice;\r\n        duration = _duration;\r\n        startAt = block.timestamp;\r\n        endAt = startAt + duration;\r\n        totalTokens = _totalTokens;\r\n\r\n        \r\n    }\r\n\r\n    // Function to get starting price\r\n    function getStartingPrice() public view returns (uint256) {\r\n        return startingPrice;\r\n    }\r\n    // Function to get ending price\r\n    function getReservePrice() public view returns (uint256) {\r\n        return reservePrice;\r\n    }\r\n\r\n    // Function to get duration of auction\r\n    function getDuration() public view returns (uint256) {\r\n        return duration;\r\n    }\r\n\r\n    // Function to get auction details\r\n    function getEndAt() public view returns (uint256) {\r\n        return endAt;\r\n    }\r\n\r\n\r\n    // Function to get start time\r\n    function getStartTime() public view returns (uint256) {\r\n        return startAt;\r\n    }\r\n\r\n    // Function to get current price\r\n    function getCurrentPrice() public view returns (uint256) {\r\n        uint256 currentTime = block.timestamp;\r\n        uint256 currentPrice;\r\n\r\n        if (currentTime >= endAt) {\r\n            currentPrice = reservePrice;\r\n        } else {\r\n            uint256 elapsed = currentTime - startAt;\r\n            uint256 priceDecay = ((startingPrice - reservePrice) * elapsed) / duration;\r\n            currentPrice = startingPrice - priceDecay;\r\n        }\r\n\r\n        \r\n\r\n        return currentPrice;\r\n    }\r\n\r\n    // Function to place a bid\r\n    function bid() public payable nonReentrant {\r\n        \r\n        require(block.timestamp >= startAt && block.timestamp <= endAt, \"Auction not active\");\r\n        require(!auctionEnded, \"Auction has ended\");\r\n        uint256 price = getCurrentPrice();\r\n        uint256 tokensToPurchase = ((msg.value) / price); // Adjust for decimals\r\n        require(tokensSold + tokensToPurchase <= totalTokens, \"Not enough tokens left\");\r\n\r\n        bids[msg.sender] += msg.value;\r\n        tokensSold += tokensToPurchase;\r\n\r\n        // Transfer tokens to bidder\r\n        bool success = token.transfer(msg.sender, tokensToPurchase);\r\n        require(success, \"Token transfer failed\");\r\n\r\n        \r\n\r\n        emit BidPlaced(msg.sender, msg.value, tokensToPurchase);\r\n\r\n        // End auction if all tokens sold\r\n        if (tokensSold == totalTokens) {\r\n            auctionEnded = true;\r\n            emit AuctionEnded(tokensSold, price);\r\n            finalizeAuction();\r\n        }\r\n    }\r\n\r\n    // Function to end the auction manually after duration\r\n    function endAuction() public nonReentrant {\r\n        require(block.timestamp >= endAt, \"Auction duration not yet passed\");\r\n        require(!auctionEnded, \"Auction already ended\");\r\n        auctionEnded = true;\r\n        uint256 price = getCurrentPrice();\r\n\r\n        \r\n\r\n        emit AuctionEnded(tokensSold, price);\r\n        finalizeAuction();\r\n    }\r\n\r\n    // Function to finalize the auction\r\n    function finalizeAuction() internal {\r\n        // Transfer the Ether to the seller\r\n        uint256 contractBalance = address(this).balance;\r\n        seller.transfer(contractBalance);\r\n\r\n        // Console log transfer details\r\n\r\n        // Burn unsold tokens\r\n        uint256 unsoldTokens = totalTokens - tokensSold;\r\n        if (unsoldTokens > 0) {\r\n            emit Debug(unsoldTokens);\r\n            token.burn(unsoldTokens);\r\n            emit Debug(unsoldTokens);\r\n            // Console log token burn\r\n        } else {\r\n        }\r\n    }\r\n}",
  "sourcePath": "c:\\Users\\durko\\Desktop\\blockchain-group-project\\contracts\\DutchAuction.sol",
  "compiler": {
    "name": "solc",
    "version": "0.8.13+commit.abaa5c0e.Emscripten.clang"
  },
  "schemaVersion": "3.4.16",
  "updatedAt": "2024-11-04T14:14:23.239Z",
  "networkType": "ethereum",
  "devdoc": {
    "kind": "dev",
    "methods": {},
    "version": 1
  },
  "userdoc": {
    "kind": "user",
    "methods": {},
    "version": 1
  }
}