{
  "contractName": "DutchAuction",
  "abi": [
    {
      "inputs": [
        {
          "internalType": "address",
          "name": "_tokenAddress",
          "type": "address"
        },
        {
          "internalType": "uint256",
          "name": "_startingPrice",
          "type": "uint256"
        },
        {
          "internalType": "uint256",
          "name": "_reservePrice",
          "type": "uint256"
        },
        {
          "internalType": "uint256",
          "name": "_duration",
          "type": "uint256"
        },
        {
          "internalType": "uint256",
          "name": "_totalTokens",
          "type": "uint256"
        }
      ],
      "stateMutability": "nonpayable",
      "type": "constructor"
    },
    {
      "anonymous": false,
      "inputs": [
        {
          "indexed": false,
          "internalType": "uint256",
          "name": "totalTokensSold",
          "type": "uint256"
        },
        {
          "indexed": false,
          "internalType": "uint256",
          "name": "clearingPrice",
          "type": "uint256"
        }
      ],
      "name": "AuctionEnded",
      "type": "event"
    },
    {
      "anonymous": false,
      "inputs": [
        {
          "indexed": true,
          "internalType": "address",
          "name": "bidder",
          "type": "address"
        },
        {
          "indexed": false,
          "internalType": "uint256",
          "name": "amount",
          "type": "uint256"
        },
        {
          "indexed": false,
          "internalType": "uint256",
          "name": "tokensPurchased",
          "type": "uint256"
        }
      ],
      "name": "BidPlaced",
      "type": "event"
    },
    {
      "inputs": [],
      "name": "auctionEnded",
      "outputs": [
        {
          "internalType": "bool",
          "name": "",
          "type": "bool"
        }
      ],
      "stateMutability": "view",
      "type": "function",
      "constant": true
    },
    {
      "inputs": [
        {
          "internalType": "address",
          "name": "",
          "type": "address"
        }
      ],
      "name": "bids",
      "outputs": [
        {
          "internalType": "uint256",
          "name": "",
          "type": "uint256"
        }
      ],
      "stateMutability": "view",
      "type": "function",
      "constant": true
    },
    {
      "inputs": [],
      "name": "duration",
      "outputs": [
        {
          "internalType": "uint256",
          "name": "",
          "type": "uint256"
        }
      ],
      "stateMutability": "view",
      "type": "function",
      "constant": true
    },
    {
      "inputs": [],
      "name": "endAt",
      "outputs": [
        {
          "internalType": "uint256",
          "name": "",
          "type": "uint256"
        }
      ],
      "stateMutability": "view",
      "type": "function",
      "constant": true
    },
    {
      "inputs": [],
      "name": "reservePrice",
      "outputs": [
        {
          "internalType": "uint256",
          "name": "",
          "type": "uint256"
        }
      ],
      "stateMutability": "view",
      "type": "function",
      "constant": true
    },
    {
      "inputs": [],
      "name": "seller",
      "outputs": [
        {
          "internalType": "address payable",
          "name": "",
          "type": "address"
        }
      ],
      "stateMutability": "view",
      "type": "function",
      "constant": true
    },
    {
      "inputs": [],
      "name": "startAt",
      "outputs": [
        {
          "internalType": "uint256",
          "name": "",
          "type": "uint256"
        }
      ],
      "stateMutability": "view",
      "type": "function",
      "constant": true
    },
    {
      "inputs": [],
      "name": "startingPrice",
      "outputs": [
        {
          "internalType": "uint256",
          "name": "",
          "type": "uint256"
        }
      ],
      "stateMutability": "view",
      "type": "function",
      "constant": true
    },
    {
      "inputs": [],
      "name": "token",
      "outputs": [
        {
          "internalType": "contract V4Coin",
          "name": "",
          "type": "address"
        }
      ],
      "stateMutability": "view",
      "type": "function",
      "constant": true
    },
    {
      "inputs": [],
      "name": "tokensSold",
      "outputs": [
        {
          "internalType": "uint256",
          "name": "",
          "type": "uint256"
        }
      ],
      "stateMutability": "view",
      "type": "function",
      "constant": true
    },
    {
      "inputs": [],
      "name": "totalTokens",
      "outputs": [
        {
          "internalType": "uint256",
          "name": "",
          "type": "uint256"
        }
      ],
      "stateMutability": "view",
      "type": "function",
      "constant": true
    },
    {
      "inputs": [],
      "name": "getCurrentPrice",
      "outputs": [
        {
          "internalType": "uint256",
          "name": "",
          "type": "uint256"
        }
      ],
      "stateMutability": "view",
      "type": "function",
      "constant": true
    },
    {
      "inputs": [],
      "name": "bid",
      "outputs": [],
      "stateMutability": "payable",
      "type": "function",
      "payable": true
    },
    {
      "inputs": [],
      "name": "endAuction",
      "outputs": [],
      "stateMutability": "nonpayable",
      "type": "function"
    }
  ],
  "bytecode": "0x60806040523480156200001157600080fd5b50604051620014f5380380620014f58339818101604052810190620000379190620001f1565b600160008190555082841162000084576040517f08c379a00000000000000000000000000000000000000000000000000000000081526004016200007b9062000300565b60405180910390fd5b84600160006101000a81548173ffffffffffffffffffffffffffffffffffffffff021916908373ffffffffffffffffffffffffffffffffffffffff16021790555033600260006101000a81548173ffffffffffffffffffffffffffffffffffffffff021916908373ffffffffffffffffffffffffffffffffffffffff1602179055508360038190555082600481905550816005819055504260068190555060055460065462000134919062000351565b600781905550806008819055505050505050620003ae565b600080fd5b600073ffffffffffffffffffffffffffffffffffffffff82169050919050565b60006200017e8262000151565b9050919050565b620001908162000171565b81146200019c57600080fd5b50565b600081519050620001b08162000185565b92915050565b6000819050919050565b620001cb81620001b6565b8114620001d757600080fd5b50565b600081519050620001eb81620001c0565b92915050565b600080600080600060a0868803121562000210576200020f6200014c565b5b600062000220888289016200019f565b95505060206200023388828901620001da565b94505060406200024688828901620001da565b93505060606200025988828901620001da565b92505060806200026c88828901620001da565b9150509295509295909350565b600082825260208201905092915050565b7f5374617274696e67207072696365206d7573742062652067726561746572207460008201527f68616e2072657365727665207072696365000000000000000000000000000000602082015250565b6000620002e860318362000279565b9150620002f5826200028a565b604082019050919050565b600060208201905081810360008301526200031b81620002d9565b9050919050565b7f4e487b7100000000000000000000000000000000000000000000000000000000600052601160045260246000fd5b60006200035e82620001b6565b91506200036b83620001b6565b9250827fffffffffffffffffffffffffffffffffffffffffffffffffffffffffffffffff03821115620003a357620003a262000322565b5b828201905092915050565b61113780620003be6000396000f3fe6080604052600436106100dd5760003560e01c8063864333741161007f578063db2e1eed11610059578063db2e1eed14610281578063eb91d37e146102ac578063fc0c546a146102d7578063fe67a54b14610302576100dd565b80638643337414610200578063c74465651461022b578063d6fbf20214610256576100dd565b8063518ab2a8116100bb578063518ab2a81461014257806362ea82db1461016d5780637cc3ae8c146101aa5780637e1c0c09146101d5576100dd565b806308551a53146100e25780630fb5a6b41461010d5780631998aeef14610138575b600080fd5b3480156100ee57600080fd5b506100f7610319565b6040516101049190610a60565b60405180910390f35b34801561011957600080fd5b5061012261033f565b60405161012f9190610a94565b60405180910390f35b610140610345565b005b34801561014e57600080fd5b506101576106bd565b6040516101649190610a94565b60405180910390f35b34801561017957600080fd5b50610194600480360381019061018f9190610af2565b6106c3565b6040516101a19190610a94565b60405180910390f35b3480156101b657600080fd5b506101bf6106db565b6040516101cc9190610a94565b60405180910390f35b3480156101e157600080fd5b506101ea6106e1565b6040516101f79190610a94565b60405180910390f35b34801561020c57600080fd5b506102156106e7565b6040516102229190610b3a565b60405180910390f35b34801561023757600080fd5b506102406106fa565b60405161024d9190610a94565b60405180910390f35b34801561026257600080fd5b5061026b610700565b6040516102789190610a94565b60405180910390f35b34801561028d57600080fd5b50610296610706565b6040516102a39190610a94565b60405180910390f35b3480156102b857600080fd5b506102c161070c565b6040516102ce9190610a94565b60405180910390f35b3480156102e357600080fd5b506102ec610780565b6040516102f99190610bb4565b60405180910390f35b34801561030e57600080fd5b506103176107a6565b005b600260009054906101000a900473ffffffffffffffffffffffffffffffffffffffff1681565b60055481565b60026000540361038a576040517f08c379a000000000000000000000000000000000000000000000000000000000815260040161038190610c2c565b60405180910390fd5b600260008190555060065442101580156103a657506007544211155b6103e5576040517f08c379a00000000000000000000000000000000000000000000000000000000081526004016103dc90610c98565b60405180910390fd5b600a60009054906101000a900460ff1615610435576040517f08c379a000000000000000000000000000000000000000000000000000000000815260040161042c90610d04565b60405180910390fd5b600061043f61070c565b90506000813461044f9190610d82565b9050600854816009546104629190610db3565b11156104a3576040517f08c379a000000000000000000000000000000000000000000000000000000000815260040161049a90610e55565b60405180910390fd5b34600b60003373ffffffffffffffffffffffffffffffffffffffff1673ffffffffffffffffffffffffffffffffffffffff16815260200190815260200160002060008282546104f29190610db3565b92505081905550806009600082825461050b9190610db3565b925050819055506000600160009054906101000a900473ffffffffffffffffffffffffffffffffffffffff1673ffffffffffffffffffffffffffffffffffffffff1663a9059cbb33846040518363ffffffff1660e01b8152600401610571929190610e84565b6020604051808303816000875af1158015610590573d6000803e3d6000fd5b505050506040513d601f19601f820116820180604052508101906105b49190610ed9565b9050806105f6576040517f08c379a00000000000000000000000000000000000000000000000000000000081526004016105ed90610f52565b60405180910390fd5b3373ffffffffffffffffffffffffffffffffffffffff167fdf8644c0a4c21ed214ce69f395675b3a5fcd1039083daea5058898de40ea3149348460405161063e929190610f72565b60405180910390a2600854600954036106b0576001600a60006101000a81548160ff0219169083151502179055507fe536ac546f86787f3ea4069f79235c6b5a681e87d051300a3ed19a6ebb0db71c6009548460405161069f929190610f72565b60405180910390a16106af6108fd565b5b5050506001600081905550565b60095481565b600b6020528060005260406000206000915090505481565b60075481565b60085481565b600a60009054906101000a900460ff1681565b60065481565b60035481565b60045481565b60008042905060006007548210610727576004549050610778565b6000600654836107379190610f9b565b905060006005548260045460035461074f9190610f9b565b6107599190610fcf565b6107639190610d82565b9050806003546107739190610f9b565b925050505b809250505090565b600160009054906101000a900473ffffffffffffffffffffffffffffffffffffffff1681565b6002600054036107eb576040517f08c379a00000000000000000000000000000000000000000000000000000000081526004016107e290610c2c565b60405180910390fd5b6002600081905550600754421015610838576040517f08c379a000000000000000000000000000000000000000000000000000000000815260040161082f90611075565b60405180910390fd5b600a60009054906101000a900460ff1615610888576040517f08c379a000000000000000000000000000000000000000000000000000000000815260040161087f906110e1565b60405180910390fd5b6001600a60006101000a81548160ff02191690831515021790555060006108ad61070c565b90507fe536ac546f86787f3ea4069f79235c6b5a681e87d051300a3ed19a6ebb0db71c600954826040516108e2929190610f72565b60405180910390a16108f26108fd565b506001600081905550565b6000479050600260009054906101000a900473ffffffffffffffffffffffffffffffffffffffff1673ffffffffffffffffffffffffffffffffffffffff166108fc829081150290604051600060405180830381858888f1935050505015801561096a573d6000803e3d6000fd5b50600060095460085461097d9190610f9b565b90506000811115610a1a57600160009054906101000a900473ffffffffffffffffffffffffffffffffffffffff1673ffffffffffffffffffffffffffffffffffffffff166342966c68826040518263ffffffff1660e01b81526004016109e39190610a94565b600060405180830381600087803b1580156109fd57600080fd5b505af1158015610a11573d6000803e3d6000fd5b50505050610a1b565b5b5050565b600073ffffffffffffffffffffffffffffffffffffffff82169050919050565b6000610a4a82610a1f565b9050919050565b610a5a81610a3f565b82525050565b6000602082019050610a756000830184610a51565b92915050565b6000819050919050565b610a8e81610a7b565b82525050565b6000602082019050610aa96000830184610a85565b92915050565b600080fd5b6000610abf82610a1f565b9050919050565b610acf81610ab4565b8114610ada57600080fd5b50565b600081359050610aec81610ac6565b92915050565b600060208284031215610b0857610b07610aaf565b5b6000610b1684828501610add565b91505092915050565b60008115159050919050565b610b3481610b1f565b82525050565b6000602082019050610b4f6000830184610b2b565b92915050565b6000819050919050565b6000610b7a610b75610b7084610a1f565b610b55565b610a1f565b9050919050565b6000610b8c82610b5f565b9050919050565b6000610b9e82610b81565b9050919050565b610bae81610b93565b82525050565b6000602082019050610bc96000830184610ba5565b92915050565b600082825260208201905092915050565b7f5265656e7472616e637947756172643a207265656e7472616e742063616c6c00600082015250565b6000610c16601f83610bcf565b9150610c2182610be0565b602082019050919050565b60006020820190508181036000830152610c4581610c09565b9050919050565b7f41756374696f6e206e6f74206163746976650000000000000000000000000000600082015250565b6000610c82601283610bcf565b9150610c8d82610c4c565b602082019050919050565b60006020820190508181036000830152610cb181610c75565b9050919050565b7f41756374696f6e2068617320656e646564000000000000000000000000000000600082015250565b6000610cee601183610bcf565b9150610cf982610cb8565b602082019050919050565b60006020820190508181036000830152610d1d81610ce1565b9050919050565b7f4e487b7100000000000000000000000000000000000000000000000000000000600052601260045260246000fd5b7f4e487b7100000000000000000000000000000000000000000000000000000000600052601160045260246000fd5b6000610d8d82610a7b565b9150610d9883610a7b565b925082610da857610da7610d24565b5b828204905092915050565b6000610dbe82610a7b565b9150610dc983610a7b565b9250827fffffffffffffffffffffffffffffffffffffffffffffffffffffffffffffffff03821115610dfe57610dfd610d53565b5b828201905092915050565b7f4e6f7420656e6f75676820746f6b656e73206c65667400000000000000000000600082015250565b6000610e3f601683610bcf565b9150610e4a82610e09565b602082019050919050565b60006020820190508181036000830152610e6e81610e32565b9050919050565b610e7e81610ab4565b82525050565b6000604082019050610e996000830185610e75565b610ea66020830184610a85565b9392505050565b610eb681610b1f565b8114610ec157600080fd5b50565b600081519050610ed381610ead565b92915050565b600060208284031215610eef57610eee610aaf565b5b6000610efd84828501610ec4565b91505092915050565b7f546f6b656e207472616e73666572206661696c65640000000000000000000000600082015250565b6000610f3c601583610bcf565b9150610f4782610f06565b602082019050919050565b60006020820190508181036000830152610f6b81610f2f565b9050919050565b6000604082019050610f876000830185610a85565b610f946020830184610a85565b9392505050565b6000610fa682610a7b565b9150610fb183610a7b565b925082821015610fc457610fc3610d53565b5b828203905092915050565b6000610fda82610a7b565b9150610fe583610a7b565b9250817fffffffffffffffffffffffffffffffffffffffffffffffffffffffffffffffff048311821515161561101e5761101d610d53565b5b828202905092915050565b7f41756374696f6e206475726174696f6e206e6f74207965742070617373656400600082015250565b600061105f601f83610bcf565b915061106a82611029565b602082019050919050565b6000602082019050818103600083015261108e81611052565b9050919050565b7f41756374696f6e20616c726561647920656e6465640000000000000000000000600082015250565b60006110cb601583610bcf565b91506110d682611095565b602082019050919050565b600060208201905081810360008301526110fa816110be565b905091905056fea26469706673582212205e115144e3bee3fa2920f7ea883fa12aabbf5585a6c4bb6bfe7b69bf217e6b4a64736f6c634300080d0033",
  "immutableReferences": {},
  "source": "// SPDX-License-Identifier: MIT\r\npragma solidity ^0.8.2;\r\n\r\n// Import necessary OpenZeppelin contracts\r\nimport \"@openzeppelin/contracts/security/ReentrancyGuard.sol\";\r\nimport \"./V4Coin.sol\";\r\n\r\n\r\ncontract DutchAuction is ReentrancyGuard {\r\n    // Variables\r\n    V4Coin public token;\r\n    address payable public seller;\r\n    uint256 public startingPrice;\r\n    uint256 public reservePrice;\r\n    uint256 public duration;\r\n    uint256 public startAt;\r\n    uint256 public endAt;\r\n    uint256 public totalTokens;\r\n    uint256 public tokensSold;\r\n    bool public auctionEnded;\r\n\r\n    mapping(address => uint256) public bids;\r\n\r\n    // Events\r\n    event BidPlaced(address indexed bidder, uint256 amount, uint256 tokensPurchased);\r\n    event AuctionEnded(uint256 totalTokensSold, uint256 clearingPrice);\r\n\r\n    // Constructor\r\n    constructor(\r\n        address _tokenAddress,\r\n        uint256 _startingPrice,\r\n        uint256 _reservePrice,\r\n        uint256 _duration,\r\n        uint256 _totalTokens\r\n    ) {\r\n        require(_startingPrice > _reservePrice, \"Starting price must be greater than reserve price\");\r\n        token = V4Coin(_tokenAddress);\r\n        seller = payable(msg.sender);\r\n        startingPrice = _startingPrice;\r\n        reservePrice = _reservePrice;\r\n        duration = _duration;\r\n        startAt = block.timestamp;\r\n        endAt = startAt + duration;\r\n        totalTokens = _totalTokens;\r\n\r\n        \r\n    }\r\n\r\n    // Function to get current price\r\n    function getCurrentPrice() public view returns (uint256) {\r\n        uint256 currentTime = block.timestamp;\r\n        uint256 currentPrice;\r\n\r\n        if (currentTime >= endAt) {\r\n            currentPrice = reservePrice;\r\n        } else {\r\n            uint256 elapsed = currentTime - startAt;\r\n            uint256 priceDecay = ((startingPrice - reservePrice) * elapsed) / duration;\r\n            currentPrice = startingPrice - priceDecay;\r\n        }\r\n\r\n        \r\n\r\n        return currentPrice;\r\n    }\r\n\r\n    // Function to place a bid\r\n    function bid() public payable nonReentrant {\r\n        \r\n        require(block.timestamp >= startAt && block.timestamp <= endAt, \"Auction not active\");\r\n        require(!auctionEnded, \"Auction has ended\");\r\n        uint256 price = getCurrentPrice();\r\n        uint256 tokensToPurchase = ((msg.value) / price); // Adjust for decimals\r\n        require(tokensSold + tokensToPurchase <= totalTokens, \"Not enough tokens left\");\r\n\r\n        bids[msg.sender] += msg.value;\r\n        tokensSold += tokensToPurchase;\r\n\r\n        // Transfer tokens to bidder\r\n        bool success = token.transfer(msg.sender, tokensToPurchase);\r\n        require(success, \"Token transfer failed\");\r\n\r\n        \r\n\r\n        emit BidPlaced(msg.sender, msg.value, tokensToPurchase);\r\n\r\n        // End auction if all tokens sold\r\n        if (tokensSold == totalTokens) {\r\n            auctionEnded = true;\r\n            emit AuctionEnded(tokensSold, price);\r\n            finalizeAuction();\r\n        }\r\n    }\r\n\r\n    // Function to end the auction manually after duration\r\n    function endAuction() public nonReentrant {\r\n        require(block.timestamp >= endAt, \"Auction duration not yet passed\");\r\n        require(!auctionEnded, \"Auction already ended\");\r\n        auctionEnded = true;\r\n        uint256 price = getCurrentPrice();\r\n\r\n        \r\n\r\n        emit AuctionEnded(tokensSold, price);\r\n        finalizeAuction();\r\n    }\r\n\r\n    // Function to finalize the auction\r\n    function finalizeAuction() internal {\r\n        // Transfer the Ether to the seller\r\n        uint256 contractBalance = address(this).balance;\r\n        seller.transfer(contractBalance);\r\n\r\n        // Console log transfer details\r\n\r\n        // Burn unsold tokens\r\n        uint256 unsoldTokens = totalTokens - tokensSold;\r\n        if (unsoldTokens > 0) {\r\n            token.burn(unsoldTokens);\r\n\r\n            // Console log token burn\r\n        } else {\r\n        }\r\n    }\r\n}",
  "sourcePath": "c:\\Users\\jakub\\OneDrive\\Plocha\\ntu\\Blockchain\\blockchain-group-project\\piskoviste\\contracts\\DutchAuction.sol",
  "compiler": {
    "name": "solc",
    "version": "0.8.13+commit.abaa5c0e.Emscripten.clang"
  },
  "schemaVersion": "3.4.16",
  "updatedAt": "2024-10-29T14:35:44.067Z",
  "networkType": "ethereum",
  "devdoc": {
    "kind": "dev",
    "methods": {},
    "version": 1
  },
  "userdoc": {
    "kind": "user",
    "methods": {},
    "version": 1
  }
}